:100000000C9435010C9466010C9466010C94660105
:100010000C9466010C9466010C9466010C946601C4
:100020000C9466010C9466010C9466010C946601B4
:100030000C9466010C9466010C9466010C946601A4
:100040000C9466010C9466010C9466010C94660194
:100050000C9466010C9466010C9466010C94AE0439
:100060000C9466010C9478040C944E040C94660174
:100070000C9466010C9466010C9466010C94660164
:100080000C9466010C9466010C9466010C94660154
:100090000C9466010C9466010C9466010C94660144
:1000A0000C9466010C9466010C9466010C94660134
:1000B0000C9466010C9466010C9466010C94660124
:1000C0000C9466010C9466010C9466010C94660114
:1000D0000C9466010C9466010C9466010C94660104
:1000E0000C9466010C94BA020C94F5020C94580618
:1000F0000C94CC020C94DF020C94FE010C94A4012D
:100100000C94C6010C94FA020C94C0020C94680181
:100110000C94E7020C94E3020C94CF020C94FB02C3
:100120000C94D5020C94B8010C94C8020C94ED0206
:100130000C9495010C94C4020C94D9020C944B02BB
:100140000C94FF020C94F10200002100240027000F
:100150002A002D00300033000101000004010701D6
:100160000A01000020002300260029002C002F0097
:100170003200000100000301060109010000220015
:10018000250028002B002E00310034000201000061
:10019000050108010B010505050507050808080804
:1001A000020202020A0A080804040404010101010F
:1001B000010101010303030303030303040707070A
:1001C0000C0C0C0C0C0C0C0C0202020206060606AF
:1001D000060606060B0B0B0B0B0B0B0B010210207C
:1001E000200808102040102040800201020108046D
:1001F0000201010204081020408080402010080401
:100200000201800402018040201008040201080459
:10021000020101020408102040800102040810209D
:10022000408000000A0B02090C0D0E0807030401B0
:1002300000000000000000000000000000000000BE
:10024000000000000000000000000000000012118B
:10025000100000000000000000000000000000008E
:100260000000000000000000580611241FBECFEF60
:10027000D1E2DEBFCDBF00E00CBF12E0A0E0B2E0F3
:10028000E2E6FDE000E00BBF02C007900D92A2374E
:10029000B107D9F723E0A2E7B2E001C01D92A8316F
:1002A000B207E1F711E0C5E3D1E000E006C0219715
:1002B0000109802FFE010E94A706C433D10780E008
:1002C0000807A9F70E94F8040C94AF060C940000EC
:1002D000AF92BF92CF92DF92EF92FF920F931F9354
:1002E000CF93DF936C017B018B01040F151FEB0192
:1002F0005E01AE18BF08C017D10759F06991D60149
:10030000ED91FC910190F081E02DC6011995892BAA
:1003100079F7C501DF91CF911F910F91FF90EF9079
:10032000DF90CF90BF90AF900895FC01538D448D26
:10033000252F30E0842F90E0821B930B541710F090
:10034000CF96089501970895FC01918D828D98179D
:1003500061F0A28DAE0FBF2FB11D5D968C91928D75
:100360009F5F9F73928F90E008958FEF9FEF0895A6
:10037000FC01918D828D981731F0828DE80FF11D6F
:10038000858D90E008958FEF9FEF0895FC01918D8A
:10039000228D892F90E0805C9F4F821B91098F7383
:1003A000992708958BE792E00E94C60121E0892BEE
:1003B00009F420E0822F0895FC01A48DA80FB92F25
:1003C000B11DA35ABF4F2C91848D90E001968F737D
:1003D0009927848FA689B7892C93A089B1898C919C
:1003E000837080648C93938D848D981306C00288EB
:1003F000F389E02D80818F7D80830895EF92FF92B5
:100400000F931F93CF93DF93EC0181E0888F9B8D37
:100410008C8D98131AC0E889F989808185FF15C0F1
:100420009FB7F894EE89FF896083E889F989808114
:100430008370806480839FBF81E090E0DF91CF91E3
:100440001F910F91FF90EF900895F62E0B8D10E005
:100450000F5F1F4F0F731127E02E8C8D8E110CC074
:100460000FB607FCFACFE889F989808185FFF5CFBF
:10047000CE010E94DC01F1CFEB8DEC0FFD2FF11DC1
:10048000E35AFF4FF0829FB7F8940B8FEA89FB89FC
:1004900080818062CFCFCF93DF93EC01888D88235A
:1004A000B9F0AA89BB89E889F9898C9185FD03C0D7
:1004B000808186FD0DC00FB607FCF7CF8C9185FFBC
:1004C000F2CF808185FFEDCFCE010E94DC01E9CF24
:1004D000DF91CF91089580E090E0892B29F00E9470
:1004E000D20181110E94000080E090E0892B49F048
:1004F00080E090E0892B29F00E94000081110E9489
:10050000000080E090E0892B49F080E090E0892BAA
:1005100029F00E94000081110E94000080E090E01C
:10052000892B49F080E090E0892B29F00E9400009F
:1005300081110C94000008958150823108F05AC056
:10054000E82FF0E08827E855FD4F8F4F0C94A70661
:10055000C802CC02BA02C002C402FA02CF02D5021B
:10056000D902DF02E302E702ED02F102FA02F5022C
:10057000FB02FF02809180008F77809380000895B6
:10058000809180008F7DF9CF80918000877FF5CFAB
:1005900084B58F7784BD089584B58F7DFBCF80911E
:1005A000B0008F778093B00008958091B0008F7D68
:1005B000F9CF809190008F7780939000089580917B
:1005C00090008F7DF9CF80919000877FF5CF80914B
:1005D000A0008F778093A00008958091A0008F7D68
:1005E000F9CF8091A000877FF5CF809120018F7790
:1005F000809320010895809120018F7DF9CF809113
:100600002001877FF5CF1F93CF93DF93EDE2F2E0D8
:100610009491E7EEF1E0D491E1EAF1E0C491CC23CA
:10062000B9F0182F992319F0892F0E949C02EC2F02
:10063000F0E0EE0FFF1FE458FE4FA591B4918FB785
:10064000F894EC91111108C0D095DE23DC938FBF94
:10065000DF91CF911F910895DE2BF8CFCF93DF93D9
:10066000282F30E0F901EE5DFD4F8491F901E4524D
:10067000FE4FD491F901EA56FE4FC491CC23A1F06C
:1006800081110E949C02EC2FF0E0EE0FFF1FEE594B
:10069000FE4FA591B491EC91ED2381E090E009F437
:1006A00080E0DF91CF91089580E090E0FACFCF9382
:1006B000DF9390E0FC01E452FE4F24918A569E4F56
:1006C000FC0184918823D1F090E0880F991FFC01F0
:1006D000E85BFE4FA591B491FC01E458FE4FC59133
:1006E000D49161110EC09FB7F8948C91E22FE095E0
:1006F0008E238C932881E223E8839FBFDF91CF91E3
:1007000008958FB7F894EC91E22BEC938FBFF6CF5E
:1007100090917B00977F90937B00865380648093B9
:100720007C0080917A00806480937A0080917A00C6
:1007300086FDFCCF809178009091790008953FB7B5
:10074000F8948091770290917802A0917902B0910B
:100750007A0226B5A89B05C02F3F19F00196A11D6E
:10076000B11D3FBFBA2FA92F982F8827BC01CD01FB
:10077000620F711D811D911D42E0660F771F881F5A
:10078000991F4A95D1F70895FC0101900020E9F7DF
:100790003197AF01481B590BBC018BE792E00C94D9
:1007A00068018F929F92AF92BF920F931F93CF9346
:1007B000DF93CDB7DEB7A1970FB6F894DEBF0FBEBB
:1007C000CDBF19A2423008F44AE08E010F5D1F4FE1
:1007D000842E912CB12CA12CA50194010E94850698
:1007E000E62FB901CA01EA30F4F4E05DD801EE93D6
:1007F0008D01232B242B252B79F790E080E0109797
:1008000019F0CD010E94C403A1960FB6F894DEBF83
:100810000FBECDBFDF91CF911F910F91BF90AF90D1
:100820009F908F900895E95CE1CFCF92DF92EF9295
:10083000FF92CF93DF936B017C016DE28BE792E037
:100840000E94FE01EC0166277727CB016C197D0918
:100850008E099F094AE00E94D1038C0F9D1FDF91F2
:10086000CF91FF90EF90DF90CF900895CF93DF93DB
:100870000E94C403EC0182E192E00E94C4038C0F49
:100880009D1FDF91CF910895BC01990F880B990BA3
:1008900097FD0C9415044AE00C94D1031F920F921B
:1008A0000FB60F9211240BB60F922F933F934F93D5
:1008B0005F936F937F938F939F93AF93BF93EF93C8
:1008C000FF938BE792E00E94DC01FF91EF91BF91D3
:1008D000AF919F918F917F916F915F914F913F91D8
:1008E0002F910F900BBE0F900FBE0F901F90189579
:1008F0001F920F920FB60F9211240BB60F922F93E7
:100900008F939F93EF93FF93E0918B02F0918C0272
:100910008081E0919102F091920282FD1DC0908150
:10092000809194028F5F8F7320919502821741F01E
:10093000E0919402F0E0E558FD4F958F809394028A
:10094000FF91EF919F918F912F910F900BBE0F9080
:100950000FBE0F901F9018958081F2CF1F920F92BB
:100960000FB60F9211242F933F938F939F93AF93C2
:10097000BF938091730290917402A0917502B0911F
:1009800076023091720223E0230F2D3758F501963D
:10099000A11DB11D20937202809373029093740283
:1009A000A0937502B09376028091770290917802BD
:1009B000A0917902B0917A020196A11DB11D809398
:1009C000770290937802A0937902B0937A02BF9154
:1009D000AF919F918F913F912F910F900FBE0F90EC
:1009E0001F90189526E8230F0296A11DB11DD2CFA6
:1009F000789484B5826084BD84B5816084BD85B5FA
:100A0000826085BD85B5816085BD80916E00816005
:100A100080936E00109281008091810082608093AB
:100A200081008091810081608093810080918000AD
:100A30008160809380008091B10084608093B100D8
:100A40008091B00081608093B000809191008260BD
:100A500080939100809191008160809391008091BA
:100A600090008160809390008091A10082608093CB
:100A7000A1008091A10081608093A1008091A000DD
:100A800081608093A0008091210182608093210188
:100A900080912101816080932101809120018160FA
:100AA0008093200180917A00846080937A00809105
:100AB0007A00826080937A0080917A0081608093CE
:100AC0007A0080917A00806880937A001092C10049
:100AD00061E08BE00E94570360E084E00E945703CE
:100AE00060E089E00E945703E0918B02F0918C0254
:100AF00082E08083E0918702F09188021082E09189
:100B00008902F0918A028FEC808310929302E09127
:100B10008F02F091900286E08083E0918D02F09147
:100B20008E02808180618083E0918D02F0918E023F
:100B3000808188608083E0918D02F0918E028081B7
:100B400080688083E0918D02F0918E0280818F7D9C
:100B500080838AE30E9488036C0188E30E948803F3
:100B60007C0186E30E948803EC0185E192E00E940B
:100B7000C403C6010E94440482E292E00E94C403BE
:100B8000C7010E94440482E292E00E94C403BE01B5
:100B90000D2E000C880B990B97FF46C00E94150480
:100BA00082E192E00E94C40327E9C216D1040CF04E
:100BB0005DC087E9E816F1040CF04AC0C739D105D9
:100BC000BCF585E292E00E94360484E00E942E0388
:100BD000892BE1F581E00E9403030E949F036B01D2
:100BE0007C0184E6882E912CA12CB12C0E949F03BD
:100BF0006C197D098E099F09683E73408105910536
:100C0000A8F381E0881A9108A108B10828EEC20E65
:100C100023E0D21EE11CF11C81149104A104B10453
:100C200029F70E946B0295CF4AE00E94D103B8CF0A
:100C300088E392E00E94360484E00E942E0301972C
:100C400029F489E00E942E03019721F280E0C3CFAE
:100C5000C639D105DCF38BE492E00E94360484E0CF
:100C60000E942E03892B91F789E0B0CF26E9E21686
:100C7000F10464F3C639D1054CF38EE592E00E948D
:100C8000360484E00E942E03019729F489E00E9433
:100C90002E030197D9F284E00E942E03892B09F0DC
:100CA00099CF89E00E942E03892B09F093CFCECFF4
:100CB000EBE7F2E01382128288EE93E0A0E0B0E06E
:100CC00084839583A683B78384E092E091838083B5
:100CD00085EC90E09587848784EC90E09787868701
:100CE00080EC90E0918B808B81EC90E0938B828BF9
:100CF00082EC90E0958B848B86EC90E0978B868BD2
:100D0000118E128E138E148E0895A1E21A2EAA1B34
:100D1000BB1BFD010DC0AA1FBB1FEE1FFF1FA217AB
:100D2000B307E407F50720F0A21BB30BE40BF50BA8
:100D3000661F771F881F991F1A9469F76095709531
:100D4000809590959B01AC01BD01CF010895EE0FF8
:100D5000FF1F881F8BBF0790F691E02D1994F89420
:020D6000FFCFC3
:100D620000000000FE01680195014B02C601A401CA
:100D7200B8010D0A004C44522076616C7565733AD5
:100D820020002C2000457865637574696E67204EDB
:100D92004F54206761746500457865637574696EA8
:100DA2006720414E4420676174650045786563752C
:100DB20074696E67204E4F522067617465004578F2
:100DC20065637574696E6720584F52206761746558
:020DD20000001F
:00000001FF
